:020000040800F2
:10000000300800209101000837250008CF200008A3
:1000100035250008D9050008452800080000000023
:100020000000000000000000000000003B25000868
:1000300011090008000000003925000869250008A2
:10004000AB010008AB010008AB010008AB010008E0
:10005000AB010008AB010008AB010008AB010008D0
:10006000AB010008AB010008AB01000895080008CF
:10007000AB010008AB010008AB010008AB010008B0
:10008000AB010008AB010008AB010008AB010008A0
:10009000AB010008AB010008AB010008AB01000890
:1000A000AB010008AB010008AB010008AB01000880
:1000B000AB010008AB010008AB010008AB01000870
:1000C000AB010008AB010008AB010008AB01000860
:1000D000AB01000839280008AB010008AB0100089B
:1000E000AB010008AB010008AB01000800F002F80A
:1000F00000F03FF80AA090E8000C82448344AAF183
:100100000107DA4501D100F034F8AFF2090EBAE880
:100110000F0013F0010F18BFFB1A43F0010318473B
:10012000A0440000C0440000103A24BF78C878C141
:10013000FAD8520724BF30C830C144BF04680C60ED
:10014000704700000023002400250026103A28BF35
:1001500078C1FBD8520728BF30C148BF0B60704739
:10016000642900F07F80002070471FB51FBD10B5C7
:1001700010BD00F054F91146FFF7F7FF02F0D8FB6D
:1001800000F072F903B4FFF7F2FF03BC00F07AF954
:100190000948804709480047FEE7FEE7FEE7FEE71B
:1001A000FEE7FEE7FEE7FEE7FEE7FEE70448054957
:1001B000054A064B70470000E5250008ED000008E1
:1001C00030020020300800203004002030040020DD
:1001D0000FB41CB5084B06AA7B44694600900598ED
:1001E00000F005F904460020694600F013F92046A6
:1001F0001CBC5DF814FB0000390200002DE9F04141
:100200000E460446002020622046E168884730B34D
:10021000252805D0D4E901219047206A401CF2E747
:10022000E168204600278847050018D0A5F1410065
:10023000192802D820354FF4006732462946204657
:100240002760FFF78DFF40B1012804D0F61D26F08E
:1002500007060836D8E7361DD6E72846DAE7206ACB
:10026000BDE8F0812DE9F0410646002410687529AB
:10027000314616A510D0AFF30080002802DA4042C4
:1002800013A507E031688A0701D512A502E04907E6
:1002900004D511A5012401E0AFF3008000210A225A
:1002A00006F1240709E0B0FBF2FCB0FBF2F302FB1D
:1002B0001C00303078541846491C0028F3D12346DE
:1002C0002A463046BDE8F04100F032B80000000098
:1002D0002D0000002B000000200000004FF0000265
:1002E00000B5134694469646203922BFA0E80C502C
:1002F000A0E80C50B1F12001BFF4F7AF090728BF07
:10030000A0E80C5048BF0CC05DF804EB890028BF82
:1003100040F8042B08BF704748BF20F8022B11F0AB
:10032000804F18BF00F8012B704770477047704727
:100330002DE9F0470D4699469246044600F12408FF
:100340000168880604D5E06921F01001216000E011
:100350000120A84201DD471B00E00027A1697A19AE
:1003600002EB0900081AA0612078C00602D42046DA
:10037000AFF30080002608E0D4E901211AF8060056
:100380009047206A401C761C20624E45F4DB2078A2
:10039000C0060AD52046AFF3008006E0D4E901216B
:1003A00030209047206A401C2062381EA7F10107C8
:1003B000F4DC07E0D4E9012118F805009047206A31
:1003C000401C2062281EA5F10105F3DC2046AFF396
:1003D00000802078000602D50220BDE8F0870120C9
:1003E000FBE7000001694A1C02610878704700B50C
:1003F0008FB0CDE901310021059105497944CDE95E
:10040000031011466846FFF7F9FE0FB000BD00006B
:10041000E5FFFFFF0A6802F8010B0A6070477546A6
:1004200000F02CF8AE4605006946534620F0070060
:10043000854618B020B5FFF7B9FEBDE820404FF063
:1004400000064FF000074FF000084FF0000B21F0BE
:100450000701AC46ACE8C009ACE8C009ACE8C0098B
:10046000ACE8C0098D46704710B50446AFF3008074
:100470002046BDE81040FFF785BE000000487047E9
:10048000CC01002001491820ABBEFEE72600020087
:100490007047000070B5044600688168C943C90709
:1004A00017D1816821F00101816000F09FFE0546AF
:1004B0000AE000BF00F09AFE401B022804D9206821
:1004C0008068C043C00706D020688068C043C0076A
:1004D000F0D0002070BDA06A40F01000A062E06A79
:1004E00040F00100E062012070BD10B50146406A95
:1004F000826A12F0500F05D0006A026BBDE810400E
:1005000008461047816A41F4007181620168896878
:10051000C1F3424107290CD1017B51B9816A21F411
:1005200080718162816AC90403D4816A41F001014A
:10053000816200F06FFA10BD10B5406A816A41F027
:1005400040018162C16A41F00401C16200F064FAB5
:1005500010BD10B5406A00F05EFA10BDF8B5002677
:100560000446009600688168C943C9072DD0816898
:1005700041F001018160164816490068B0FBF1F0B6
:1005800000E0401E00900028FBD100F02FFE054641
:1005900016E000BF00F02AFE401B022810D9206898
:1005A0008068C043C0070BD0A06A40F01000A06272
:1005B000E06A40F00100E06284F824600120F8BDA8
:1005C00020688068C043C007E4D10020F8BD000067
:1005D0005000002040420F00FEE710B5002201212C
:1005E00000F087F8BDE81040052000F0F3BC10B51E
:1005F00004460298216022716371A0712820A072C4
:100600000620E0710C202072142060720820E07235
:10061000322000F0DFFC00223321204600F069F890
:1006200000223321204600F064F8052000F0D2FCBF
:1006300000223221204600F05CF8052000F0CAFCC0
:1006400000222021204600F054F8052000F0C2FCD2
:10065000E1790022204600F04CF8217A0022204661
:1006600000F047F8617A0022204600F042F8A17AB3
:100670000022204600F03DF800220121204600F033
:1006800038F820460022BDE81040022100F031B8C1
:1006900030B4447900238C4201D8641EE1B28479DD
:1006A000944201D8641EE2B232B1012A06D0022A75
:1006B00006D0032A06D007E00B4605E0403102E0F1
:1006C000143100E05431CBB230BC43F08001002241
:1006D00000F00FB8012200F00CB870B50C460546CA
:1006E00003E02846641CFFF7F5FF21780029F8D1C4
:1006F00070BD7CB506460807040EF07A01F0F005DF
:1007000018B145F0080544F00804012A01D02AB1C7
:1007100008E045F0010544F0010403E025F001057F
:1007200024F0010445F004008DF80400012000F0DD
:1007300051FC8DF8055044F004008DF806000120AE
:1007400000F048FC4FF47A708DF807400090317942
:10075000042301AA306800F013FE7CBD70B50024AC
:10076000322002F097F80C4D0221284600F034FDAB
:1007700050B9642002F08EF80221284600F02CFDCA
:1007800008B1012400E0FF240221284600F024FDE6
:100790000028F9D1204670BD000C014070B5054617
:1007A00000F056F8FFF7DAFF114C207000F022F845
:1007B000607000F01FF8A07000F01CF8E07000F00E
:1007C00019F8207100F016F8E0806678A178237996
:1007D0007218E1780A441A44824207D1084603F0AD
:1007E000E7FC2860304603F0E3FC686070BD000061
:1007F000000000202DE9F0410024144F01260221C1
:10080000384600F0E9FC0028F9D0322002F042F826
:100810000221384600F0E0FC90B1C4F1070106FA6D
:1008200001F02843C5B20221384600F0D5FC00286B
:10083000F9D1641CE4B2082CE1D32846BDE8F0816C
:10084000C4F1070006FA00F08543ECE7000C014014
:1008500010B500F03BF80E4C0221204601F078FE66
:1008600000220221204600F0BCFC44F2506002F05D
:1008700011F801220221204600F0B3FC1E2002F0F4
:1008800009F82046BDE81040022101F057BE0000E3
:10089000000C0140014800F08DBA000088010020E2
:1008A00030B590F840500124AC40C56B6C600468D2
:1008B00063604368102B036803D099600068C260CE
:1008C00030BD9A600068C16030BD00000E4801680C
:1008D00021F080710160016841F0807101600B4876
:1008E000016821F001010160016841F0010101602E
:1008F0000021416000BF00BF00BF406808B1002078
:100900007047012070470000FCED00E0001000E09F
:10091000704772B6FEE70000F8B50024009490F826
:1009200024202546012A12D0012280F824204A687A
:100930001F23072A0DD20668776B521E02EB820234
:1009400093409F430B6893401F43776319E0022055
:10095000F8BD06680D2A0AD2376BD21F02EB82025D
:1009600093409F430B6893401F43376309E0F76A46
:100970000D3A02EB820293409F430B6893401F4362
:10098000F7620A68072306680A2A0AD3F7680A3A50
:1009900002EB420293409F438B6893401F43F760F2
:1009A00008E0376902EB420293409F438B68934013
:1009B0001F4337610A68102A01D0112A20D1124B37
:1009C00002689A4217D193681B0219D4936843F4C2
:1009D000000393600968102912D10C490C4A096878
:1009E000B1FBF2F101EB8101490000E0491E0091E9
:1009F0000029FBD104E0816A41F0200181620124D9
:100A000080F824502046F8BD00240140500000200A
:100A100040420F0070477047704700002DE9F041D9
:100A20004FF0000704003D467ED0A06A002628B99A
:100A3000E66284F82460204600F07EF82046FFF746
:100A400029FDA16A01F01001014304D0A06A40F021
:100A50001000A06268E0A16A21F4885141F002010F
:100A6000A1626268E169237B0A4347EA43010A43C2
:100A7000A1684FF48077B94208D0012906D000213F
:100A800094F814C0BCF1010F02D00AE03946F7E730
:100A9000F3B1A36A43F02003A362E36A43F00103C6
:100AA000E3622368D3F804C02CF4694C4CEA010CCF
:100AB000C3F804C023689968DFF870C001EA0C012C
:100AC00011439960A168B9420BD0012909D00CE00B
:100AD000DFF85CC0A3690CEB43330B4343F40061C4
:100AE000DFE7218A0D05A5F580152168CB6A23F47F
:100AF00070032B43CB62216889680E4B19409142E9
:100B000008D1E662A16A21F0020141F00101A1626F
:100B1000BDE8F081A06A20F0020040F01000A06261
:100B2000E06A40F00100E0620120F1E7FDF7E1FF3B
:100B300000E0FFFFFE0E1FFF70B586B000250646E1
:100B4000009501950295039500681A4988422ED1B7
:100B50001949886940F400708861886900F4007060
:100B60000490886940F0040088618869694600F053
:100B7000040004906B200090032001900F4800F0C7
:100B80003BFA104C0E48C4E900058020C4E902502D
:100B900040002061800060612020C4E906052046F5
:100BA00000F0B2F908B1FFF7B4FE3462666206B035
:100BB00070BD000000240140001002400008014008
:100BC00008000240880100202DE9F04789460446CC
:100BD0003B4900683B4F0E1D9046884201D0B84209
:100BE00007D1306810F4702F03D001252846BDE8E6
:100BF000F08794F8240001280CD0012084F8240008
:100C00002046FFF7ABFC05004FF0000004D084F84D
:100C10002400EBE70220EAE7A16A40F60162914373
:100C200041F48071A1622168B94218D1326812F48E
:100C3000702F14D0A16A41F48011A1623168490576
:100C400005D5A16A21F4005141F48051A162A16A45
:100C5000C9040AD5E16A21F00601E16206E0A26A50
:100C600022F48012A2624968E9E7E06284F8240075
:100C7000216A15488862216A1448C862216A1448AA
:100C8000086321686FF0020008602068816841F401
:100C900080718160216843464A464C31206A00F0E9
:100CA00061F920688168C1F342410729816803D056
:100CB00041F48011816099E741F4A001FAE7000056
:100CC0000024014000280140EB04000853050008FF
:100CD0003905000810B590F821100022022905D02E
:100CE0000421816380F82020012010BD01680B6879
:100CF00023F00E030B6001680B6823F001030B6007
:100D000090F84030C46B012101FA03F3636080F86E
:100D1000211080F82020104610BD000010B590F87A
:100D200021100024022903D00421816301243DE025
:100D300001680A6822F00E020A6001680A6822F05F
:100D400001020A601A4A0168914201D1012121E0A1
:100D5000174A1432914201D110211BE0144A283263
:100D6000914201D1891515E0114A3C32914201D1DD
:100D700089140FE00E4A5032914202D14FF4803173
:100D800008E00B4A6432914202D14FF4801101E035
:100D90004FF08071064A083A5160012180F8211015
:100DA000002180F82010416B01B18847204610BD1A
:100DB000080002402DE9F05FC16B0C6801680B6808
:100DC000D0F840C0042202FA0CF2494DDFF824A109
:100DD000494E4A4FDFF828B1DFF828E122422CD0F3
:100DE0005A072AD50A68920603D40A6822F0040238
:100DF0000A600168A94201D1042219E0514501D1DC
:100E0000402215E0B14202D14FF4806210E0B942B5
:100E100002D14FF480420BE0594502D14FF48022B9
:100E200006E0714502D14FF4800201E04FF080628C
:100E30002F4908394A60C16A3BE04FF0020808FABE
:100E40000CF818EA040F4FF000094FF0010235D0FA
:100E50005FEA837832D50B689B0605D40B6823F0D4
:100E60000A030B6080F821200168A94201D1022207
:100E700019E0514501D1202215E0B14202D14FF4D1
:100E8000007210E0B94202D14FF400520BE0594514
:100E900002D14FF4003206E0714502D14FF4001246
:100EA00001E04FF00072124908394A6080F8209042
:100EB000816A00291AD0BDE8F05F0847082505FAC5
:100EC0000CF5254212D01B0710D50B6823F00E033A
:100ED0000B6090F84010C36B02FA01F15960826315
:100EE00080F8212080F82090016BE2E7BDE8F09FB8
:100EF000080002401C000240300002404400024052
:100F0000580002406C00024030B528B308C81349AD
:100F100014221944B1FBF2F18900C16310498163C5
:100F2000022141771A6843F6F0718A43D0E9001430
:100F30002143D0E902452C432143046921434469FC
:100F40002143846921431143196000214163012237
:100F500042770177084630BD012030BDF8FFFDBF64
:100F60000000024070B5044690F8200000250128DA
:100F70000CD0012084F8200094F821600020012E7C
:100F800006D084F820000225284670BD022070BDDE
:100F9000022684F82160A0632068066826F0010616
:100FA00006602046FFF77CFCE06A002820680168A4
:100FB00002D041F00E0106E021F00401016020683A
:100FC000016841F00A0101602068016841F00101F7
:100FD0000160D9E770B5044600F008F90546601CC9
:100FE00002D004480078044400F000F9401BA042FD
:100FF000FAD370BD440000202DE9F84FDFF8B89116
:101000000024A9F1040B23460F2709F1040AABF1D0
:10101000040EC9E00125A5402A40AA427DD1674EB1
:10102000D1F804C0ACEB0608B44532D014DCBCF1F6
:10103000030F3AD009DCBCF1000F2AD0BCF1010F3C
:101040001CD0BCF1020F31D11DE0BCF1110F17D043
:10105000BCF1120F2AD119E0B8F5881F19D006DCAF
:10106000B8F5803F15D0B8F5801F1FD111E0B8F555
:10107000001F0ED0B8F5041F18D10AE0CB6815E0A8
:10108000CB681B1D12E0CB6808330FE0CB680C3334
:101090000CE08B682BB1012B4FF0080303D04561A6
:1010A00004E0042302E0056100E00023FF2A01D8E8
:1010B000064601E000F104064FEA840501D9A5F1D6
:1010C0002005D6F8008007FA05FC28EA0C0803FA88
:1010D00005F548EA0508C6F800804D68ED0062D5C0
:1010E000374DAE6946F00106AE61AD6924F00306E6
:1010F00005F001050095334D06EB050CDCF80850B2
:10110000A607360F07FA06F825EA0805DFF8B880C3
:10111000404503D14FF0000817E044E0DFF8AC8011
:10112000404502D14FF001080FE0DFF8A4804045B0
:1011300002D14FF0020808E0DFF89880404502D164
:101140004FF0030801E04FF0040808FA06F848EAF7
:101150000508CCF808804D68D9F80060ED024D46CE
:1011600001D5164300E096432E604D68DAF8006022
:10117000AD02554601D5164300E096432E604D68FA
:10118000DBF80060AD035D4601D5164300E09643F1
:101190002E604D68DEF80060ED03754601D51643FC
:1011A00000E096432E60641C0D682A46E5407FF4FB
:1011B00031AFBDE8F88F00000804014000001110B5
:1011C000001002400000014000080140000C0140F6
:1011D00000100140001401408068084000D0012048
:1011E00070470AB1016170470904FBE70148806854
:1011F000704700004400002070B5040025D094F82A
:101200003D00002520B984F83C50204600F04EF9FE
:10121000242084F83D002068016821F0010101606C
:101220002068016841F4004101602068016821F4F0
:101230000041016000F012FB4D4A6168914201D803
:101240004C4900E04C49884201D2012070BD4B4915
:101250002368B0FBF1F15E6826F03F060E435E6046
:101260006368934206D94FF4967359434FF47A73E7
:10127000B1FBF3F12368491C1E6A26F03F06314397
:1012800019626168914210D84900401EB0FBF1F22A
:10129000521CC2F30B02042A01D2042022E0B0FB4C
:1012A000F1F0401CC0F30B001CE0A268F2B301EBAC
:1012B000C10303EB0116431EB3FBF6F35B1C43F4BF
:1012C00080431B0549D092B301EBC10202EB01112F
:1012D000401EB0FBF1F0401CC0F30B0040F4804016
:1012E00040F400402168CA694CF6FF739A431043EA
:1012F000C861D4E9071001432068026822F0C002E7
:1013000011430160D4E9030101432068826848F277
:10131000FF339A4311438160D4E9050108432168F2
:10132000CA6822F0FF021043C86001E00EE016E038
:101330002068016841F0010101602564202084F8E3
:101340003D00256384F83E50002070BD01EB41064E
:10135000431EB3FBF6F35B1CB3E70120C2E701EBCE
:101360004101401EB0FBF1F0401CC0F30B00B7E799
:10137000A086010080841E0000093D0040420F004D
:101380002DE9F84F1F4690468A460446DDF828901E
:10139000FFF72CFF054694F83D0020287FD1192344
:1013A000012240492046009500F024FF002876D114
:1013B00094F83C00012872D0012084F83C00206899
:1013C0000168C90703D1016841F00101016020688B
:1013D000016821F400610160212084F83D001020A3
:1013E00084F83E0000262664C4F824806785608D5A
:1013F00020852D48E0622B464A465146204600F0A3
:101400007FFE90B9206841698069009036E02A46E5
:101410004946204600F094FF50B1206C042804D1C6
:101420002068016841F4007101600120BDE8F88F77
:10143000606A216800780861606A401C6062618DA2
:10144000491E6185218D491E89B221852268536913
:10145000DB435B070BD451B100781061606A401C1C
:101460006062608D401E6085208D401E20852A466A
:101470004946204600F092FE0028CED1208D00285B
:10148000C5D154F83D0B016841F400710160202082
:1014900004F81E09E67766770020C7E7FFE7022019
:1014A000C4E70000020010000000FFFF10B586B086
:1014B0000021009101910291039100680F49884237
:1014C0001AD10F4CA06940F00800A061A0696946DC
:1014D00000F008000490C02000901220019003202A
:1014E00003900848FFF788FDE06940F40010E061D0
:1014F000E06900F40010049006B010BD00540040F4
:1015000000100240000C014002488168027811443A
:101510008160704744000020074810B5016841F021
:1015200010010160032000F075F80E2000F006F8AD
:1015300000F024F8002010BD0020024070B50D4DD1
:1015400004464FF47A712878B1FBF0F00A49096833
:10155000B1FBF0F000F058FB48B9102C07D2002284
:101560002146501E00F036F800206C6070BD01204E
:1015700070BD000044000020500000200C4808B559
:10158000816941F001018161816901F001010091EE
:10159000C16941F08051C161C06900F08050009084
:1015A0000448416821F0E06141F00071416008BDEC
:1015B0000010024000000140002809DB00F01F027B
:1015C000012191404009800000F1E020C0F80011A5
:1015D00070470000F0B40E4B1B680C46C3F30223A7
:1015E000C3F10705042D00D90425191D072901D2CF
:1015F000002300E0DB1E012606FA05F1491E21400A
:1016000099409E40761E16403143F0BC01F01BB954
:101610000CED00E0064900F0070208684FF6FF03F2
:10162000184040EA0220034A104308607047000057
:101630000CED00E00000FA052DE9F84305460078BE
:10164000354CC00754D0E0690026C00008D4E069DA
:1016500040F08050E061E069012600F08050009089
:101660002E480168C90512D40168804641F4807192
:101670000160FFF7BBFD074605E000BFFFF7B6FDC1
:10168000C01B642823D8D8F80000C005F6D5206A0E
:1016900010F4407021D0A98801F4407181421CD01F
:1016A000206A1F49012220F440700A6000220A606B
:1016B0002062C00711D0FFF799FD074641F2883834
:1016C00008E000BFFFF792FDC11B414502D903208E
:1016D000BDE8F883206A8007F4D5206A696820F4A1
:1016E0004070084320621EB1E06920F08050E06144
:1016F0002878800705D56068A96820F44040084331
:1017000060602878C00605D56068E96820F480002C
:10171000084360600020DBE70010024000700040DA
:10172000400442422DE9F0470F46050061D0434E88
:10173000306800F00700B84209D2306820F0070096
:1017400038433060306800F00700B84251D1286853
:101750003B4C810712D5400703D5606840F4E06038
:1017600060602878000703D5606840F460506060CE
:101770006068A96820F0F000084360602878C0071E
:1017800028D06868012810D02168022810D0890765
:1017900000292EDA616821F0030101436160FFF73F
:1017A00025FD804641F288390DE021688903EFE785
:1017B0008901EDE7FFF71AFDA0EB0801494502D9C1
:1017C0000320BDE8F0876068696800F00C00B0EBAA
:1017D000810FEFD1306800F00700B8420BD93068B4
:1017E00020F0070038433060306800F00700B8424E
:1017F00001D00120E5E72878400705D56068E96851
:1018000020F4E060084360602878000706D560682F
:10181000296920F4605040EAC100606000F03EF8A1
:101820006168084AC1F30311515CC8400649086069
:1018300006480068FFF782FE0020C2E70020024051
:1018400000100240A8450008500000204800002079
:101850000148006870470000500000200448054916
:1018600000684968044AC1F30221515CC8407047CE
:101870005000002000100240B84500080448054907
:1018800000684968044AC1F3C221515CC8407047EE
:101890005000002000100240B84500080E4A516870
:1018A0000E4801F00C03042B11D0082B0FD10C486B
:1018B000C1F38343C903C05C0AD55168084AC1F328
:1018C0004041921E515C054A5043B0FBF1F0704715
:1018D00004494843704700000010024000127A009B
:1018E0009845000800093D002DE9F84F040070D02C
:1018F0002078C04DC00749D06868C0F38100012836
:1019000007D06868C0F38100022809D16868C00365
:1019100006D52868800339D560680028E7D035E00F
:101920006068B0F5803F0BD010B1B0F5A02F11D09A
:10193000286820F480302860286820F4802002E0A5
:10194000286840F480302860606890B1FFF74EFC52
:1019500006460AE0286840F480202860F0E700BFCF
:10196000FFF744FC801B642873D828688003F7D5F0
:101970000CE0FFF73BFC064605E000BFFFF736FC36
:10198000801B6428F0D828688003F7D420789A4E0A
:1019900080074FF001094FF0000839D5686810F052
:1019A0000C0F07D06868C0F38100022809D168686D
:1019B000C00306D42868800714D52069012808D1FF
:1019C00010E02069B0B1C6F80090FFF70FFC0746A1
:1019D00005E00AE1FFF70AFCC01B0228C4D828680A
:1019E0008007F7D52868616920F0F80040EAC10057
:1019F00028600DE0C6F80080FFF7F8FB074604E01A
:101A0000FFF7F4FBC01B022823D828688007F7D40F
:101A1000207800072CD57948A169D9B1C0F8009089
:101A2000FFF7E4FB074604E0FFF7E0FBC01B0228DA
:101A30000FD8686A8007F7D571484FF4FA510068EB
:101A4000B0FBF1F0009000BF0098411E0091FAD267
:101A50000EE080E0C0F80080FFF7C8FB074604E016
:101A6000FFF7C4FBC01B022875D8686A8007F7D44B
:101A70002078400760D5E8690027C00008D4E869ED
:101A800040F08050E861E869012700F08050009044
:101A90005C480168C90513D40168834641F480712C
:101AA0000160FFF7A3FB824606E000BFFFF79EFB45
:101AB000A0EB0A0064284ED8DBF80000C005F5D57D
:101AC000E06801280AD008B1052813D0286A20F060
:101AD00001002862286A20F0040002E0286A40F031
:101AE00001002862E06841F2883B98B1FFF77EFB75
:101AF00082460BE0286A40F004002862EEE700BF4F
:101B0000FFF774FBA0EB0A0159455AD8286A8007F1
:101B1000F6D50CE0FFF76AFB824605E0FFF766FBAF
:101B2000A0EB0A0159454CD8286A8007F6D41FB1AA
:101B3000E86920F08050E861E06988B36968C1F322
:101B40008101022944D00228C6F8608004D0FFF742
:101B50004DFB044638E034E0FFF748FB074604E05D
:101B6000FFF744FBC01B02282BD828688001F7D45C
:101B7000206AB0F5803F05D16868A16820F4003084
:101B800008436860D4E908010843696821F47411C6
:101B900008436860C6F86090FFF728FB044606E03B
:101BA00025E000BFFFF722FB001B022809D82868A8
:101BB0008001F7D51BE000BFFFF718FB001B0228D0
:101BC00002D90320BDE8F88F28688001F4D40EE024
:101BD0000128F7D06868226A00F48031914204D16C
:101BE000616A00F47010884201D00120EAE7002009
:101BF000E8E7000000100240000042428004424238
:101C0000500000200070004010B5401EB0F1807FF1
:101C100001D3012010BD4FF0E02460610F21601757
:101C200000F011FE0020A06107202061002010BDFF
:101C300070477047F8B5016804460868CA684B6980
:101C400010F00F0F4FF000055AD003F0010602F418
:101C50009077374365D0C10705D0D10503D5616CB6
:101C600041F001016164410705D5D90703D0616CDA
:101C700041F002016164810705D5D90703D0616C89
:101C800041F004016164010707D502F020013143EE
:101C900003D0616C41F008016164616C00293BD0A4
:101CA000800604D5900602D5204600F0CBFC2068C3
:101CB0004069616CC0F3801001F0080101432046C7
:101CC0002BD000F098FC20684069400621D52068A0
:101CD000143050E8001F21F0400140E80012002AB3
:101CE000F5D1E06BA8B16D494163E06BFFF716F8E1
:101CF000002811D0E06B416B01B0BDE8F04008470F
:101D000083060ED593060CD52046BDE8F84000F0BA
:101D100099BC2046FFF78DFFF8BDFFF78AFF656489
:101D2000F8BD266B2023012E7CD1C6067AD5D606B7
:101D300078D508684868009048694FF00206400668
:101D400040D5E16B086840680004000CE8D0A28D23
:101D50008242E5D9E085886920282DD020680C30A2
:101D600050E8001F21F4807140E80012002AF5D1EC
:101D70002168143151E8000F20F0010041E8000211
:101D8000002AF5D12068143050E8001F21F04001EE
:101D900040E80012002AF5D184F84230256320681B
:101DA0000C3050E8001F21F0100140E80012002A1A
:101DB000F5D1E06BFEF78EFF6663A08DE18D401AD2
:101DC00081B22AE0A08DE18D401A81B2E08D002819
:101DD000A6D00029A4D022680C3252E8000F20F4CB
:101DE000907042E80007002FF5D12068143050E8C9
:101DF000002F22F0010240E80027002FF5D184F8DF
:101E00004230256320680C3050E8002F22F0100289
:101E100040E80023002BF5D166632046FFF708FF5A
:101E2000F8BDFFE705062BD5150629D594F8410026
:101E30002128F5D1A068B0F5805F01D12069B0B14B
:101E4000206A411C2162216800784860E08C401EB5
:101E50000004000CE084E3D12068C16821F0800117
:101E6000C1602068C16841F04001C160D8E7206AC4
:101E70000088C0F308004860206A801C2062E5E703
:101E80004006CDD55006CBD5CA68204622F0400288
:101E9000CA6084F8413000F019F9C1E7E72500086D
:101EA00070B5040004D094F84100002510B106E09C
:101EB000012070BD84F84050204600F023F8242013
:101EC00084F841002068C16821F40051C1602046B7
:101ED00000F01AFC2068016921F49041016120683A
:101EE000416921F02A0141612068C16841F4005133
:101EF000C1606564202084F8410084F84200656375
:101F0000002070BD30B585B0002400940194029487
:101F100003940068184988422CD11848816941F41B
:101F200080418161816901F480410491816941F0BE
:101F3000040181618069124D00F0040004904FF4A7
:101F4000007000900220019003200390694628460B
:101F5000FFF752F82815CDE9000469462846029497
:101F6000FFF74AF8002211462520FFF733FB252012
:101F7000FFF722FB05B030BD0038014000100240E1
:101F8000000801402DE9F843044690F842009946C4
:101F900016460D46202802D00220BDE8F883ADB1D8
:101FA000A6B100206064222184F842102063FFF76C
:101FB0001DF9A6858046E685A0684FF48057B84293
:101FC00001D1206920B12E46002526E00120E4E75A
:101FD000002622E04346002220212046CDF8009032
:101FE00000F0EEFB08B10320D7E726B1A068B842A5
:101FF0001BD038B108E020684068C0F3080025F81D
:10200000020B07E0206980B12068406800F07F0083
:1020100006F8010BE08D401EE085E08D0028D9D147
:10202000202084F842000020B7E720684068EFE7EE
:1020300070472DE9F843044690F841001F461646C4
:102040000D46202802D00220BDE8F8837DB176B18C
:1020500000206064212084F84100FFF7C7F8A684BF
:102060008046E684A068B0F5805F02D003E00120DE
:10207000EAE7206910B12E4600250EE000260CE0AC
:102080008021204600F09CFBA0B9AEB116F8010BF0
:1020900021684860E08C401EE084E08C43464FF0AD
:1020A000000200970028EBD14FF04001204600F0DD
:1020B00087FB30B10320C7E735F8020BC0F30800F7
:1020C000E6E7202084F841000020BDE77047FEE7E6
:1020D00001684A69D24352050FD46FF480624A61A5
:1020E000002140F8301F202242738173026942F0C0
:1020F0000402026101730120704700207047000054
:10210000F8B50446C06A1E460D461746082807D093
:10211000012805D010F5803F02D0206B122804D191
:102120002068016841F480710160134600224FF07D
:1021300001112046009600F05DF840B1206800686B
:10214000C00502D54FF4007020640320F8BD20695B
:10215000B0F5804F0ED00620216800EAD51040F07F
:10216000F000086133463A460B49204600F08AF8F1
:1021700078B902E005F0FE0000E0E8B221680861ED
:10218000054933463A46891F204600F07BF800286F
:10219000DCD00120F8BD00000800010070B5164633
:1021A0000D4604461EE02046FFF792FF08B10120CD
:1021B00070BD681C16D0FFF719F8801BA84200D824
:1021C00085B920684069C04340070BD5002044F81A
:1021D000300F20216173A073216941F0200121613A
:1021E0002073E4E720684069C0434007DBD4002047
:1021F00070BD00002DE9F047984617460D4604468D
:10220000C1F30746DDF820902AE000BFB8F1FF3F98
:1022100026D0FEF7EBFFA0EB0901414502D8B8F14B
:10222000000F1DD12068012E16D0806925EA00001C
:102230000004000C12D00020B84211D1002044F854
:10224000300F20216173A073216941F020012161C9
:1022500020730120BDE8F0874069E7E70120EBE744
:102260002068012E0AD0806925EA00000004000CD5
:1022700006D00020B842C9D00020EBE74069F3E760
:102280000120F7E72DE9F047984616460D4604462B
:102290004FF000094FF0200AC1F3074723E0206800
:1022A0004069C043400515D42068016841F40071BD
:1022B000016021686FF480604861C4F8309084F850
:1022C0003DA084F83E90216C41F00401216484F823
:1022D0003C9021E0701C06D0FEF788FFA0EB0800C0
:1022E000B04203D816B1012F1FD021E02068012F82
:1022F00015D0806925EA00000004000C18D000BF4A
:1023000044F8309F84F80DA084F80E90216941F0C4
:102310002001216184F80C900120BDE8F08740691C
:1023200025EA00000004000CEAD12068406901E0C1
:102330002068806925EA00000004000CAFD1ECE7BA
:1023400070B516460D4604461EE02046FFF7C0FE57
:1023500008B1012070BD681C16D0FEF747FF801B36
:10236000A84200D885B920684069C04300060BD553
:10237000002044F8300F20216173A073216941F0DF
:10238000200121612073E4E720684069C043000612
:10239000DBD4002070BD0000FEB500242648009468
:1023A0000194244902940160891581600125057317
:1023B0000475052606614FF460214460C161FEF793
:1023C0002DFB08B172B6FEE707200094CDE901505D
:1023D00069461948FEF7A0FA08B172B6FEE7022076
:1023E000CDE9005069461448FEF796FA08B172B676
:1023F000FEE703200090019069460F48FEF78CFA33
:1024000008B172B6FEE70420CDE9006069460A48CB
:10241000FEF782FA08B172B6FEE70620CDE90006A3
:1024200069460548FEF778FA002801D072B6FEE743
:10243000FEBD000000240140540000202DE9F04FB3
:1024400085B0002437480094019402940394816974
:1024500041F010018161816901F0100104918169ED
:1024600041F020018161816901F0200104918169BD
:1024700041F004018161816901F0040104918169E5
:1024800041F0080181618069DFF89C9000F008004C
:102490004FF400550490002229464846FEF7A1FE5D
:1024A000DFF888A0AF00002239465046FEF799FEBB
:1024B000DFF87CB04FF41068002241465846FEF722
:1024C00090FE0095022601250396CDE90154694648
:1024D0004846FEF791FD49F21400CDE90004694633
:1024E00058460294FEF788FD40F61850CDE90004E6
:1024F000694650460294FEF77FFD00970396CDE9AA
:10250000015469465046FEF777FDCDF800800396EA
:10251000CDE9015469465846FEF76EFD05B0BDE8A9
:10252000F08F00000010024000100140000C01403C
:1025300000080140FEE7FEE7704770471FB5002224
:1025400000910192029203926946FEF755FD1FBD6C
:102550001FB5002200910121CDE901120221039152
:102560006946FEF749FD1FBDFEF7CEBF30B593B0FB
:1025700028216846FDF7B2FE14210AA8FDF7AEFE39
:10258000002501200F9510951195010412958DE8F5
:10259000230004904FF4E010CDE9081002240794C2
:1025A0006846FFF7A1F908B172B6FEE70AA90F2045
:1025B00081E831004FF48060CDE90D0502210AA8C1
:1025C000FFF7B0F808B172B6FEE74FF40040119083
:1025D0000F940FA8FFF730F8002801D072B6FEE77D
:1025E00013B030BD704710B5406A0021C185C18469
:1025F000FFF71FFB10BD01680C3151E8002F22F4DA
:10260000907241E80023002BF5D10168143151E8A4
:10261000002F22F0010241E80023002BF5D1016BCD
:10262000012909D101680C3151E8002F22F0100274
:1026300041E80023002BF5D1202180F84210002131
:102640000163704708B590F84210222901D002209A
:1026500008BD82684FF480539A4201D1016921B1CB
:10266000816A9A421BD04AB10AE00268816A5268C4
:10267000C2F308020A80816A891C08E0026972B10B
:102680000268526802F07F020A70816A491C816206
:10269000C18D491E0904090CC18503D01BE00268E5
:1026A0005268F1E70168CA6822F02002CA60016836
:1026B000CA6822F48072CA6001684A6922F0010285
:1026C0004A61202180F8421000214163026B012AF7
:1026D00003D0FFF7ADFC002008BD016301680C3199
:1026E00051E8002F22F0100241E80023002BF5D121
:1026F00001680A68D20602D50A6849680091818D8E
:10270000FFF796FAE7E7000070B504460068016934
:10271000E26821F44051114301612169A068084336
:10272000616908432168CA6841F20C639A43024315
:10273000CA6020684169A26921F440711143416176
:102740001E492068884202D1FFF798F801E0FFF7A0
:1027500085F800EBC00101EB001260686421800085
:10276000B2FBF0F3B3FBF1F36FF018067343B2FB67
:10277000F0F5B2FBF0F605EB8305322303EB05150C
:10278000B5FBF1F5B6FBF1F605F0F00505EB061526
:10279000B2FBF0F6B2FBF0F0B0FBF1F06FF0180214
:1027A000504306EB800003EB0010B0FBF1F0216812
:1027B00000F00F002844886070BD00000038014020
:1027C0002DE9F041984617460E460446069D27E03F
:1027D000681C25D02DB1FEF709FDA0EB0800A8422A
:1027E0001ED920680C3050E8001F21F4D07140E859
:1027F0000012002AF5D12068143050E8001F21F0A3
:10280000010140E80012002AF5D1202084F841009F
:1028100084F84200002084F840000320BDE8F081E5
:102820002068006836EA000004D00020B842CFD00B
:102830000020F3E70120F9E70148FFF7FBB90000AA
:10284000D8000020FEE70907090E002804DB00F18C
:10285000E02080F80014704700F00F0000F1E02045
:1028600080F8141D7047000010B5084C60790128ED
:102870000AD10748FDF7B1FE3220FEF7ABFB00207E
:10288000A4F134016071888110BD00003C0000207B
:102890002001002031B5084D6C68FEF7D9FF0749CB
:1028A000B0FBF1F000994843009068680099001B64
:1028B0008842FAD338BD0000001000E040420F000B
:1028C00010B50122D1020548FEF78BFCBDE810408F
:1028D00000224FF400410248FEF783BC000801408B
:1028E000000C014010B500224FF400610548FEF7CE
:1028F00078FCBDE8104000224FF400410248FEF78A
:1029000070BC000000080140000C014010B500221E
:102910004FF400610448FEF764FC0122BDE810405A
:10292000D1030248FEF75DBC00080140000C0140E5
:1029300008B5FEF7F1FDFFF719FEFFF77FFDAA4886
:10294000416941F0010141614069002200F001004C
:10295000009011460B20FEF73DFE0B20FEF72CFEEB
:10296000FFF71AFDA248A149002401604FF4165157
:10297000C0E901140C21C460C0E904418461C46150
:10298000FFF78EFA08B172B6FEE7994899495438B4
:1029900001609949C0E901144FF48041C0E9034145
:1029A00044618461C4610462FEF726FC08B172B61A
:1029B000FEE74FF47A70FEF70DFB904D00224FF4C6
:1029C00000612846FEF70DFC0022A9152846FEF7F7
:1029D00008FC874902205439009010234E2201F14F
:1029E0009C00FDF704FE82484830FDF7F6FD844860
:1029F00001214FF0663B0471417181490A23012294
:102A000032397B48FFF7BEFA00F040FE00F00AFEC4
:102A1000774905226431A1F1E800FEF7D5F8744842
:102A2000643000F120010288CA8047880F808688C0
:102A30004E80C5888D80B0F80880A1F808801046C7
:102A400001F0FBF85A466F4B01F00AF9DFF8B8A124
:102A50000022534600F06CFF00F088FE644C903476
:102A6000E060384601F0E9F85A46664B01F0F8F8A4
:102A70000022534600F05CFF00F078FE81462060A3
:102A8000304601F0DAF85A465E4B01F0E9F80022D0
:102A9000534600F04DFF00F069FE0746606028468F
:102AA00001F0CBF85A46574B01F0DAF86FF00B0201
:102AB00001F005FD00F05AFE0546A060404601F019
:102AC000BCF85A464F4B01F0CBF80022534600F0B9
:102AD0002FFF00F04BFEDFF834A10646206151467F
:102AE000384601F079FB01F0AFFA5A46454B00F049
:102AF0001FFFDFF81C810022434601F0AFF900F010
:102B000035FE203C074660605146304601F064FBCC
:102B100001F09AFA5A463B4B00F00AFF0022434666
:102B200001F09CF900F022FE0146A060384601F059
:102B3000B7FA4FF0FF3101F0F0FC01F019FB6073C0
:102B40005146484601F048FB01F07EFA5A462D4BAB
:102B500000F0EEFE0022434601F080F901F040F85B
:102B600060705146284601F037FB01F06DFA0022F3
:102B7000284B00F0DDFE01F033F8204E20704FF4BA
:102B800080513046FEF728FB1D4D234F0821287049
:102B90003846FEF721FB68704FF400413046FEF7DF
:102BA0001BFBE87010213846FEF716FBA8703115A4
:102BB0003846FEF711FB6074F1143846FEF70CFB43
:102BC000A074FFF751FE287938B1012808D00228F7
:102BD0007FF413AF00F0B4FB0FE700F01FF80CE731
:102BE00000F0C4F909E7000000100240003801407D
:102BF000D800002000540040A086010000080140D9
:102C00003C00002066660A4000FEAF400000C8425B
:102C1000000059400000F83F000C01402DE9FE4F34
:102C2000BC4D0027A5F126066878A5F134040028DC
:102C30007ED067813078DFF8E09200284FF0000204
:102C4000B0461146A9F1280073D0FDF721FDB3A1CC
:102C5000A9F12800FDF741FD00220221A9F1280079
:102C6000FDF716FD2279AEA16846FDF7B1FA694677
:102C7000A9F12800FDF731FD00220521A9F1280066
:102C8000FDF706FDA7A1A9F12800FDF726FD00220A
:102C90000821A9F12800FDF7FBFCA3A1A9F1280058
:102CA000FDF71BFD00220A21A9F12800FDF7F0FC29
:102CB000E2789BA101A8FDF78BFA01A9A9F12800F0
:102CC000FDF70BFD00220D21A9F12800FDF7E0FC26
:102CD000DF21A9F12800FDF7FDFC94A1A9F128004E
:102CE000FDF7FBFC01220021A9F12800FDF7D0FC33
:102CF0008FA1A9F12800FDF7F0FC01220A21A9F11A
:102D00002800FDF7C5FC99F8002085A102A8FDF771
:102D10005FFA02A9A9F12800FDF7DFFC01220D21CD
:102D2000A9F12800FDF7B4FCDF21A9F1280001E09A
:102D30000EE02DE0FDF7CEFC7CA177482838FDF7AA
:102D4000CCFCA87801264FF47A7B012867D069E093
:102D5000FEF74CFAA169401A01280AD96089401C83
:102D600080B26081022801D903206081FEF73EFA1B
:102D7000A061608902287FF45DAF307830B1002017
:102D8000307065482838FDF728FC53E70120F7E745
:102D9000FDF77EFC604869A12838FDF79EFC5E487F
:102DA00000220A212838FDF773FC4E4699F80D20C1
:102DB0005BA16846FDF70CFA574869462838FDF7CD
:102DC0008CFC554800220D212838FDF761FC524843
:102DD00054A12838FDF781FC4F48012200212838F2
:102DE000FDF756FC4C4858A12838FDF776FC4A48B8
:102DF00001220A212838FDF74BFC727848A101A86E
:102E0000FDF7E6F9444801A92838FDF766FC424879
:102E100001220D212838FDF73BFC42A18DE7E9781E
:102E2000012902D0A97911B105E0AF7102E008B91A
:102E3000E87830B1A781384D3435287A012813D08D
:102E400021E0FEF7D3F9A169401A584505D9A089B8
:102E5000401CA081FEF7CAF9A061A0890328EAD925
:102E60002E71AE716E71E6E72878F0B139A05B463D
:102E7000006800902848022269467038FFF7D9F8A8
:102E800000F05CFC2F72DFF88CA099F80D20AAF1FD
:102E9000100A31489AF803304FF480719A4206D2F2
:102EA0000122FEF79EF92E7005E02CA0DFE700223C
:102EB000FEF797F92F702E729AF80000E178884299
:102EC00018D299F8120018B1FFF7FAFC24A004E018
:102ED00088F80160FFF706FD22A0642300680090D7
:102EE0000D48022269467038FFF7A3F800F026FC6F
:102EF000BDE8FE8F99F8110018B1FFF707FD1AA081
:102F0000EBE788F80170FFF7EDFC16A05B46006860
:102F10000090E5E73C00002048010020483A00000E
:102F20002564000025000000543A00004300000022
:102F30004E6869657420646F3A000000446F206138
:102F40006D206461743A0000416E682073616E67A1
:102F5000203A0000633100000008014063300000A7
:102F60006432000064300000643100002DE9F84F45
:102F7000DF48012700260178DE4C4FF0020A6E2957
:102F800008D06D2908D0782908D0792908D07A2965
:102F900008D00AE0267007E0277005E0A77103E07B
:102FA000A67101E084F806A00670D2480022032131
:102FB0005C38FDF76DFBCF48CFA15C38FDF78DFB8A
:102FC000DFF82C934FF0030809F13209484699F8CD
:102FD0000210A9F134054FF47A7B012902D1C2789D
:102FE000012A03D08279022A03D007E089F806A0DB
:102FF00003E011B999F8030020B1AE8199F80200FD
:10300000D8B126E0FEF7F2F8A969401A58450AD966
:10301000A889401C80B2A881022801D9A5F80C809B
:10302000FEF7E4F8A861A8890228E7D989F804A086
:1030300089F8068089F80570E0E799F8031048469A
:10304000012906D14178012903D199F8000001280E
:1030500004D0A670207A012819D027E0FEF7C6F820
:10306000A969401A01280AD9A078401CC0B2A070F2
:10307000022801D984F80280FEF7B8F8A861A07888
:103080000228E7D12078B0B1002020702772207884
:1030900098B19CA05B460068009096480222694661
:1030A000A438FEF7C6FF00F049FB267299F802002B
:1030B000012804D00EE00120E7E793A0EAE799F8A1
:1030C00003104846012905D1417819B999F8000043
:1030D000012806D084F8046099F80200012818D06D
:1030E00022E0FEF783F8A969401A01280AD920795D
:1030F000401CC0B22071022801D984F80480FEF778
:1031000075F8A86120790228E6D184F806A0E77155
:10311000E2E799F803104846012905D141780129D1
:1031200002D199F8000030B1E67099F802104846D3
:10313000012917D01FE0FEF759F8A969401A0128A4
:103140000AD9E078401CC0B2E070022801D984F8A6
:103150000380FEF74BF8A861E0780228E5D1A7715B
:10316000E771E2E7C17831B94178012903D199F8D3
:103170000000012839D066715E48012211465C3892
:10318000FDF786FA5B4861A15C38FDF7A6FA59485D
:1031900001220B215C38FDF77BFA56485DA15C38B3
:1031A000FDF79BFA2078DFF87481002851484FF42E
:1031B00080754FF001024FF00501A0F15C002BD0AB
:1031C000FDF766FA4B4856A15C38FDF786FA0122F6
:1031D00029464046FEF705F8A07930B34549343911
:1031E000012830D002283ED04CE0FDF7FFFFA9694E
:1031F000401A01280AD96079401CC0B260710228C7
:1032000001D984F80580FDF7F1FFA86160790228F3
:10321000B2D1A671E771AFE7FDF73AFA354841A19F
:103220005C38FDF75AFA0022D2E7324801220F211A
:103230005C38FDF72DFA2F483BA15C38FDF74DFABD
:10324000FFF750FB1EE0487C10B32A4801220F21F3
:103250005C38FDF71DFA274834A15C38FDF73DFACC
:10326000FFF754FB0EE0887C90B1224801220F2129
:103270005C38FDF70DFA1F482DA15C38FDF72DFADB
:10328000FFF71EFBE07901282FD1A07910B10DE0E6
:10329000A671E77127A05B460068009015480222DE
:1032A0006946A438FEF7C5FE00F048FAA079012867
:1032B0000BD121A05B46006800900E4802226946AF
:1032C000A438FEF7B6FE00F039FAA07902280BD137
:1032D0001AA05B4600680090064802226946A4389E
:1032E000FEF7A7FE00F02AFAE671BDE8F88F0000AD
:1032F0000A0000207C01002054687520636F6E670F
:10330000000000006331000063300000426F6D3A3E
:10331000000000004D61693A000000000008014013
:103320004200000054000000440000004C00000077
:103330005800000064300000643100006432000076
:103340002DE9FC4700220521AB48FDF7A1F9ABA10F
:10335000A948FDF7C2F901221146A748FDF798F9DF
:10336000A8A1A548FDF7B9F901220C21A248FDF753
:103370008FF9A6A1A048FDF7B0F9A54CE0780A287E
:1033800006D2012205219C48FDF782F9A1A109E09E
:10339000642899484FF001024FF005011DD0FDF758
:1033A00077F99DA19448FDF798F9E2789BA16846CA
:1033B000FCF70EFF69469048FDF78FF920784FF033
:1033C00001020A288C484FF00E0109D2FDF760F97E
:1033D00091A18948FDF781F904E0FDF759F9E4E787
:1033E000FDF756F922788DA101A8FCF7F1FE01A99D
:1033F0008148FDF772F9864E4FF0030A1036002718
:10340000B078A6F1340510B9F078012817D0A7706C
:1034100060784FF001084FF00A09424668B30B216B
:103420007548FDF735F97EA17348FDF756F93078F8
:10343000002874D02771707800286FD02AE0FDF73B
:10344000D5FEA969401A01280AD9A078401CC0B24B
:10345000A070022801D984F802A0FDF7C7FEA86178
:10346000A0780228D4D1607828B10020607062482A
:10347000FDF7B3F8CCE70120F8E700215E48FDF73F
:1034800007F967A15C48FDF728F9307838B1277152
:10349000707818B36771B07801287DD084E0FDF7AB
:1034A000A5FEA969401A01280AD92079401CC0B29A
:1034B0002071092801D984F80490FDF797FEA861CE
:1034C00021796420022901D00A29E1D1E178491C3F
:1034D000C9B2E1706329DBD9E070D9E7FDF786FE58
:1034E000A969401A01280AD96079401CC0B26071EC
:1034F000092801D984F80590FDF778FEA861607964
:10350000022801D00A28C6D1E078401EC0B2E0707F
:103510000228C0D284F80380BDE700E020E0FDF778
:1035200065FEA969401A01280AD92079401CC0B259
:103530002071092801D984F80490FDF757FEA8618D
:1035400021796320022902D00A297FF474AF2178FF
:10355000491CC9B2217062297FF66DAF20706AE7FD
:10356000FDF744FEA969401A01280AD96079401C78
:10357000C0B26071092801D984F80590FDF736FEC4
:10358000A8616079022801D00A2884D12078401EE1
:10359000C0B22070022800E003E0BDD284F80080B1
:1035A00079E7F178012904D0B179042907D118B15C
:1035B00004E00420B07101E0F07810B1AF81BDE803
:1035C000FC87FDF713FEA969401AB0F57A7F0AD986
:1035D000A889401C80B2A881022801D9A5F80CA0B6
:1035E000FDF704FEA861A8890228E8D937710520F3
:1035F000B07186F80580E2E7200100204361692070
:10360000646174004461743A00000000543A0000A0
:103610002C00002030300000300000002564000045
:103620003E00000070B51848C17801292BD181787F
:10363000012928D14178012925D10078012822D1FA
:10364000FDF7D4FD104C343CE169401AB0F5966F9B
:1036500005D96079401C6071FDF7C8FDE0616079B3
:10366000A17988420FD008480838FDF797F8064D31
:10367000083D286800F07CFDE070686800F078FD87
:103680002071A079607170BD3C0000203EB52448D7
:10369000C178012942D1817801293FD1417801299E
:1036A0003CD10078012839D11E48017A002935D152
:1036B000C079002832D1FDF799FD194C343C61697D
:1036C000401AB0F5FA6F05D92078401C2070FDF73C
:1036D0008DFD60612078617888421FD011483438B0
:1036E0004278417B00788DE807000E482379E27824
:1036F0000DA15038FCF76CFD0A4920615039642354
:103700001022A1F15400FEF794FC0648A8380021CD
:103710008165C16501664166607820703EBD00002C
:103720003C0000207C010020616225642B25642D73
:1037300025642A25643A25640000000010B5FDF7D1
:1037400055FD094C216A401A40F24C41884205D986
:10375000E079401CE071FDF749FD2062E179207AB3
:10376000814200D0E07110BD0800002021F000422D
:10377000A2F16052B2F5801F01F0004328BFD2F1E0
:103780007F6C0BD95FEA001C43EAC20242EB507027
:1037900018BF704728BF20F001007047B2F5801FA6
:1037A000BCBF184670474FEA410C1CF5001F02D2FF
:1037B000084600F0D8BD70B500F0FCFA00000089A2
:1037C000FFF7F6BF4FF00040A0F580007047000003
:1037D00010B591EA030F48BF83F0004300F1528314
:1037E000841A71EB030C05D2121943EB0C03001B76
:1037F00061EB0C01DFF824E14FEA1154A4EB135CF8
:103800001EEA430F18BF9EEA445F73D023EA0E03FB
:10381000DCF1200E21EA045143F4801332D322FA62
:103820000CFE10EB0E0023FA0CFE41EB0E01CCF166
:10383000200E03FA0EFE10EB0E0051F10001B1F55F
:10384000801FCCF1200E32D201EB045112FA0EF29D
:10385000BDE8104058BF7047401C38BF5FEA4202C5
:1038600018BF7047002814BF20F0010041F100018B
:103870004FEA410313F5001F38BF7047A1F1C04163
:1038800000F0E6BA012A43EB0302ACF1200CDCF1B4
:103890001F0E32BF4FF0000E23FA0CF310EB0300A3
:1038A00041EB0451B4EB115FD0D0A1EB045101F511
:1038B000801149085FEA300001EB04510ED350F14A
:1038C000000038BF12FA0EFE08D1BDE81040C9E76B
:1038D000401C38BF5FEA4202CAD1C3E7BDE81040CE
:1038E0004FEA410313F5001F38BF7047A1F1C041F3
:1038F00000F0AEBA9EEA445F08D011EA5E0FBDE860
:10390000104004BF01F0004100207047BDE81040A6
:1039100070B500F04FFA00BF64FBBE3E0000E0FF50
:1039200002494FF0000000F098BD00BF0000F87F92
:103930002DE9C04130B4DFF8A0C23CEA111418BF31
:103940003CEA131400F0EC8081EA03051CEA111430
:1039500044EAD57418BF1CEA131500F0C780A4EB25
:1039600005044FF0004545EAC12145EAC32341EA79
:10397000505143EA525304F17F74994204F50034E4
:103980004FEAC0204FEAC22208BF904200F09C805C
:103990004FEA13650FF24016765D4FEA134506FBBA
:1039A00005F7C7F1807706FB07F74FEAD737A7FB84
:1039B00003687642C8F58038A7FB06CE38BFA8F169
:1039C000010807FB08E64FF0000EA6FB028CE6FBA1
:1039D00003CEDCF1000CCEF1004E38BFAEF1010E8B
:1039E000A6FB0C584FF000074FF00005E6FB0E87D2
:1039F000A1FB08C6A0FB07CE16EB0E0645F100059D
:103A0000E1FB076515F1E04E7EBFA4F580345FEA67
:103A100046066D4116F1800745F100054FEA17276C
:103A20004FEA066647EA0567A6F1DE46B6F1805F13
:103A30004FEA15251FD9384624F0010C05EBC47157
:103A4000BCF1FE6F01EB0C1102D8F0BCBDE80081A7
:103A500024425CBF01F5801E9EEAC47F02D4F0BC04
:103A6000BDE80081244238D4F0BCA1F1C041BDE8DA
:103A7000004100F0EDB94FEAD22242EA43524FEA48
:103A8000D323A7FB02864FEAD02040EA415007FB30
:103A900003661EEA0E0F4FEAD12105FB026658BFEE
:103AA000A6EB0056B6EB00564FEA520E4EEAC37E26
:103AB00018EB0E0E56EB530EBDD518EB02085E4107
:103AC0007F1C55F10005B6E74FF480154FF0000755
:103AD0004FF000064FF00008ADE7F0BC4FF00000DB
:103AE00001F1C04101F00041BDE8008111EA0C1F65
:103AF0000CEA131500D00CE013EA0C1F00F025802F
:103B00004FF00000F0BC81EA030101F00041BDE884
:103B10000081F0BCBDE8004181EA030100F098B9E2
:103B2000F0BCBDE8004170B500F044F9097EFC3EF0
:103B300000F007B881EA03014FF0000001F00041F6
:103B4000704781EA030100F083B9F0BCBDE8004191
:103B50004FF0000021497047FFFDFBF9F7F5F4F243
:103B6000F0EEEDEBE9E8E6E4E3E1E0DEDDDBDAD818
:103B7000D7D5D4D3D1D0CFCDCCCBCAC8C7C6C5C476
:103B8000C2C1C0BFBEBDBCBBBAB9B8B7B6B5B4B38D
:103B9000B2B1B0AFAEADACABAAA9A8A8A7A6A5A478
:103BA000A3A3A2A1A09F9F9E9D9C9C9B9A9999983C
:103BB0009797969595949393929191908F8F8E8EDF
:103BC0008D8C8C8B8B8A898988888787868585846C
:103BD00084838382828181800000FF070000F87F58
:103BE0004FEA1153A3F58063D3F11E03A8BFD3F1AD
:103BF000200C08DB4FF0004242EAC12252EA505248
:103C000032FA03F0704709420BD4102BC4BF0020D6
:103C1000704703F5787CBCF1FF3F05D04FF0FF30D3
:103C200070474FF00000704770B500F0C3F800BF58
:103C30004992248000207047F0E7B0FA80F310FA30
:103C400003F10AD0C3F11D0303F580634FEA41502D
:103C50004FEA035202EBD12170474FF0000070474A
:103C6000DFF848C170B51CEA111E1EBF1CEA13150F
:103C70009EEA0C0F95EA0C0F00F06F8081EA0304B6
:103C800023EA4C134EEAD47E21EA4C1141F4801110
:103C900043F48013AE44A1FB024CA0FB0365AEF1DC
:103CA0007F7E361955EB0C05A1FB034C4CF100034C
:103CB000A0FB021C16EB0C06654153F10003094200
:103CC00018BF46F0010613F4007F0BD14FEA033111
:103CD0004FEA0530340341EA155140EA16506FF0BF
:103CE00003020AE04FEAC3214FEAC520F40241EA89
:103CF000555140EA56506FF0020202EB2E4201EBA2
:103D0000025585EACE710AD05FEA440C18BF24F050
:103D1000004450F1000041F1000120EAD47040F26B
:103D2000FE7C624500D270BDA84214BF4FF08044B3
:103D30004FF04044002E08BF0024BEF1806FA8BFA2
:103D4000A1F1C041BDE8704080F282804FF00000D8
:103D500001F1C04101F0004170479EEA0C0F0CEAEE
:103D6000131518BF95EA0C0F06D04FF0000081EA3A
:103D7000030E0EF0004170BD00F01CF88900013EFA
:103D800000F007B800F009B84FEA430C5FEA5C5C4A
:103D900008D081EA030100F05BB84FEA410C5FEA0A
:103DA0005C5CF6D14FF00000014970470000FF074E
:103DB0000000F87F0EF1020E2EF0030E5EF8046B89
:103DC000364205D4012A43EB030515F5001F12D82E
:103DD000012841EB010C1CF5001F0CD80ED14FEA55
:103DE000D17C15F5001F0CEB4C0C0CF1020C08BF3C
:103DF0004CEBD37C04E04FF0080C01E04FEAD37C9D
:103E00000CEB4C0526FA05F606F00706B6F1040C95
:103E100006D20EEB860CBDE870404CF0010C6047FA
:103E2000DFE80CF0090B02024FF000414FF00000F8
:103E3000A1F5002170BD19461046012851EB01047F
:103E400018BFD4F5001484BF002001F0004170BDFC
:103E50000808A0F500114FEA3101704791EA030FFD
:103E600010B581F000413FF5BBAC83F0004300F09A
:103E700009B8000010B591EA030F48BF83F0004372
:103E80003FF5AEAC841A71EB030C07D212198CF01B
:103E9000004C43EB0C03001B61EB0C01DFF8A4E1C9
:103EA0004FEA1154A4EB135C1EEA430F18BF9EEABD
:103EB000445F00F0B08023EA6E03524221EA0451CD
:103EC000C3EB6E0338BF5B1EDCF1200E25D322FA54
:103ED0000CFE10EB0E0043FA0CFE41EB0E01CCF190
:103EE000200E03FA0EFE10EB0E0051F10001CCF192
:103EF000200E29D412FA0EF201EB0451BDE8104055
:103F000058BF7047401C1CBFB2F1004F70470028DB
:103F10000CBF491C20F00100704712EB020E43EB6E
:103F2000030218BF4FF0010E4EEA4202ACF1200C22
:103F3000DCF11E0E54D943FA0CFE10EB0E0051F1C9
:103F4000FF31CCF11E0ED5D50EF1010E12FA0EFE88
:103F5000404141EB010101EB445C5FEA5C5C10D93C
:103F600010EBDE7001EB045138BFBEF1004FBDE82D
:103F7000104018BF704700280CBF491C20F00100FA
:103F8000704730D24FEAD42C11F5001124F40064AC
:103F90001BD0B1FA81F20B3AA41AA41ED2F120036D
:103FA000914030FA03F31943904001EBCC71002C9F
:103FB00001EB0451BDE81040A8BF704701F1C041BA
:103FC0004FF0000001F000417047B0FA80F310FAA2
:103FD00003F100D110BDE41A173C4805C90AE4E713
:103FE00001EB045110BD491001EB0451BDE8104034
:103FF0004FEA300002E04FF0000170474A0008BF6E
:104000000042F8D0B2F5001F28BF704701F0004110
:104010004FF0000070479EEA445F07D011EA5E0F40
:10402000BDE8104004BF002100207047BDE81040EB
:1040300070B5FFF7BFFE00BF40DFF63E83F00041E2
:10404000104670470000E0FF43004FEAD30C4FEAF0
:104050003C0C43401FBF40070CF1605113F0FE4F72
:1040600070471CF0006F03D100200CF00041704736
:104070000CF0004343EA507010B540EACC0000F069
:104080002CF900BF000000924FEA0001FFF7E0BEEC
:104090004FF000414FF00000A1F5002170470000F3
:1040A00090EA010F48BF81F0004100F16881421A97
:1040B0003CBF801A89184FEAD0524FF07F4C1CEA5F
:1040C000410FA2EBD15318BF9CEA026F00F03B8076
:1040D0004FF0004C4CEA00204CEA012121FA03FC8D
:1040E00010EB0C0C1ED202F1FF325FEA1C2040EBF9
:1040F000C25038BF70471CF07F0F4FEA400C18BF0A
:10410000BCF17F4F38BF7047C3F12003994008BF0F
:1041100020F00100BCF17F4F38BF7047A0F1C040D4
:1041200000F021B94FEA3C00000A40EBC25028BF22
:104130001CF0FF0F4FEA400CE6D018BFBCF17F4FD8
:1041400038BF7047EAE79CEA026F05D010EA5C0FBF
:1041500008BF00F00040704710B500F0BEF800BF87
:1041600064FBBE3E014800F078B900BF0000C07F8C
:10417000C10DD1F19E0206DB4FEA002343F000435C
:1041800023FA02F07047004207D54FEA4001B1F12F
:10419000FE4F02D24FF00000704710B500F09DF8BE
:1041A00049922480002070476FEA20007047000089
:1041B000B0FA80F310FA03F2C3F19D030AD0D905D7
:1041C00001EB1220530638BF704700F1010008BF11
:1041D00020F00100704700004FF47F0C1CEAD01261
:1041E0001EBF1CEAD11392EA0C0F93EA0C0F00F0E9
:1041F000478090EA010F48BF42F480724FF0004CB4
:104200004CEA00204CEA012102EB0302A0FB01135F
:10421000A2F50002002918BF43F001035B0028BF8C
:104220004FEA330342EB22425FEA132C4CEBC250BD
:104230002EBFBCEB436FB2F57C0F70474FEA036CA7
:10424000BCF1004F08BF20F00100B2F57C0F38BF71
:1042500070470BD582F0FF0212F5803FC8BF704750
:1042600000F1C040D8BF00F00040704700F5000CDE
:104270005FEA4C0C48BF7047B0F1C04000F073B823
:1042800090EA010F0CEAD11348BF42F480726245F4
:1042900038BF634504D280EA010000F00040704757
:1042A00010B500F01AF800BF8900013E00F007B811
:1042B00000F009B85FEA410C5FEA1C6C08D080EAA4
:1042C000010000F050B85FEA400C5FEA1C6CF6D1C8
:1042D0004FF00040A0F5800070470EF1020E2EF066
:1042E000030E5EF8044B244204D44FEA4102B2F1BB
:1042F0007F4F11D84FEA4003B3F17F4F0CD80ED156
:104300004FEAD07CB2F17F4F0CEB4C0C0CF1020C5D
:1043100008BF4CEBD17C04E04FF0080C01E04FEA01
:10432000D17C0CEB4C0324FA03F404F00704B4F141
:10433000040C06D20EEB840CBDE810404CF0010CCE
:104340006047DFE80CF0070802024FF00040A0F5DC
:10435000800010BD0846420018BFD2F1807288BFAD
:1043600000F0004010BDFF2141EAD050C005704769
:1043700090EA010F48BF81F000413FF598AE421A24
:1043800004D882F00042A0EB020011444FEAD05260
:104390004FF07F4C1CEA410FA2EBD15318BF9CEAAF
:1043A000026F4AD04FF0004C4CEA00204CEA012149
:1043B00021FA03FCB0EB0C0C0FD412F0FE0F36D038
:1043C0005FEA4C001DD5001240EBC25038BF704769
:1043D0001CF03F0F18BF70470BE0A2F101025FEA2B
:1043E0001C2040EBC25038BF70471CF07F0F18BF35
:1043F0007047C3F12003994014BF401E20F0010014
:10440000704780084FEA122308BF7047B0FA80FC5B
:10441000A2EB0C02CCF1280C60FA0CF093EA122FFC
:1044200004BF00EBC25070474FEAC3707047130AD5
:104430005FEADC1008BF7047F6E79CEA026F04D021
:1044400010EA5C0F08BF0020704710B5FFF745FF6A
:1044500040DFF63E81F0004070470CF00F03092B5F
:1044600008BF082000F07F800A2B0BD0082B18BF54
:10447000704708BF1CF0400F0AD04FF000004FF00B
:10448000000170471CF0400F18BF4FF0004070470C
:104490001CF0100F08D020F0704300F07F4242EA79
:1044A000D3014FEA4370704700F0604021F07F4233
:1044B00042EA000201F07F4040EA727070474FF01C
:1044C000FF0C4CF4E06C1CEA11531CBF9CEA030C7B
:1044D0009445C2BFDA4201EB02517047002B0DD068
:1044E000BCF1000F0FD0002A01F00041A4BF41F041
:1044F000E04141F07F614FF00000704701F0004162
:104500004FF00000704750EA01334FF09B0C18BF8A
:104510004CF0806C7FF404AA70474FF0FF0212EA5F
:10452000D0521CBF92F0FF038B42C2BFD14200EBBE
:10453000C1507047002A0AD0002B0BD0002900F090
:104540000040A4BF40F0FE4040F40000704700F07F
:104550000040704743024FF00B0C18BF4CF0806CCA
:104560007FF400AE70471CF4801F11D01CF4E02FC4
:1045700003D06FEACC31490070474FF04050EFF361
:10458000008222F0704242EA000282F30088704703
:104590004FF00000704701020203040506070809F6
:1045A0000A0B0C0D0E0F10100000000000000000A0
:1045B00001020304060708090000000001020304C9
:1045C000E045000800000020540000002801000819
:1045D0003446000854000020DC07000044010008B5
:1045E00000000000000000000000000000000000CB
:1045F00000000000000000000000000000000000BB
:1046000000000000000000000000000000000000AA
:10461000000000000000000000000000000000009A
:104620000000000001000000100000000000000079
:044630000024F4006E
:04000005080000ED02
:00000001FF
